:020000040800F2
:1000000000C00020451B0008591700085B170008B6
:100010005D1700085F170008611700080000000066
:10002000000000000000000000000000631700084E
:10003000651700080000000067170008691700082E
:100040008D1B00088D1B00088D1B00088D1B0008F0
:100050008D1B00088D1B00088D1B00088D1B0008E0
:100060008D1B00088D1B00088D1B00088D1B0008D0
:100070008D1B00088D1B00088D1B00088D1B0008C0
:100080008D1B00088D1B00088D1B00088D1B0008B0
:100090008D1B00088D1B00088D1B00088D1B0008A0
:1000A0008D1B00088D1B00088D1B00088D1B000890
:1000B0008D1B00088D1B00088D1B00088D1B000880
:1000C0008D1B00088D1B00088D1B00088D1B000870
:1000D0008D1B00086D1700088D1B00088D1B000884
:1000E0008D1B00088D1B00088D1B00088D1B000850
:1000F0008D1B00088D1B00088D1B00088D1B000840
:100100008D1B00088D1B00088D1B00088D1B00082F
:100110008D1B00088D1B00088D1B00088D1B00081F
:100120008D1B00088D1B00088D1B00088D1B00080F
:1001300000000000000000000000000000000000BF
:1001400000000000000000000000000000000000AF
:10015000000000000000000000000000000000009F
:10016000000000000000000000000000000000008F
:10017000000000000000000000000000000000007F
:10018000000000000000000000000000000000006F
:10019000000000000000000000000000000000005F
:1001A000000000000000000000000000000000004F
:1001B000000000000000000000000000000000003F
:1001C000000000000000000000000000000000002F
:1001D000000000000000000000000000000000001F
:0401E0005FF8E0F1F3
:1001E40010B5054C237833B9044B13B10448AFF36D
:1001F40000800123237010BD0C00002000000000CB
:10020400E81B000808B5034B1BB103490348AFF3CF
:10021400008008BD0000000010000020E81B00085A
:1002240038B50E4B054618784FF47A73B3FBF0F3E8
:100234000B4A1068B0FBF3F000F08CF8044658B990
:100244000F2D09D8024629464FF0FF3000F042F83E
:10025400044B20461D6038BD012038BD000000203D
:100264000800002004000020074A08B51368032092
:1002740043F01003136000F01BF80020FFF7D0FFD9
:1002840001F046FA002008BD00200240034A044B56
:1002940011681B780B441360704700BF28000020CE
:1002A40000000020014B1868704700BF28000020A0
:1002B400074A0002D36800F4E06023F4E0631B04FF
:1002C4001B0C43F0BF6343F400330343D360704714
:1002D40000ED00E0174B30B5DC68C4F30224C4F130
:1002E4000703251D042B28BF0423062D4FF0010509
:1002F40098BF002405FA03F303F1FF3388BF033CDE
:100304001940A14005FA04F4013C2240002842EAC5
:1003140001024FEA0212AFBF00F16040064B00F049
:100324000F00D2B2A5BFD2B200F561401A5480F8D2
:10033400002330BD00ED00E014ED00E0012342098C
:1003440000F01F0003FA00F0014B43F8220070474D
:1003540000E100E00138B0F1807F0AD2F021064BC1
:10036400064A586082F823100020072298601A6019
:1003740070470120704700BF10E000E000ED00E08E
:1003840090F8213010B5022B03D00423836301209D
:1003940010BD03681A6822F00E021A601A6822F06F
:1003A40001021A60294A934224D902F562729342E7
:1003B40019D01432934218D01432934217D0143205
:1003C40093420CBF4FF480534FF48033204A536060
:1003D4000123002480F82130436B80F820409BB334
:1003E4009847204610BD0123F0E71023EEE74FF4B1
:1003F4008073EBE717498B4216D014318B4215D02A
:1004040014318B4214D014318B4214D014318B42EA
:1004140014D014318B4214D0934214BF4FF4803360
:100424004FF080730C4AD2E70123FBE71023F9E76E
:100434004FF48073F6E74FF48053F3E74FF48033BF
:10044400F0E74FF48013EDE7184610BD800002403A
:100454000004024008000240000002402DE9F74F6A
:10046400002216466C4F6D4BDFF8B8E1DFF8B8C1D7
:100474004FF001080C6808FA06F808EA0404A045DD
:1004840040F085804D68122D00F0B78000F28D8019
:10049400022D00F0AF8000F28180002D00F09180E9
:1004A400012D00F0A5804FF00F09FF2C93BF824669
:1004B40006F18045083DD0F800B092BFB500D0F8F1
:1004C40004B0AD0009FA05F82BEA080802FA05F5AC
:1004D40088BF00F1040A48EA0505CAF80050D1F8BB
:1004E40004A01AF0805F52D0BD6926F0030845F0DD
:1004F4000105BD61BD6908F1804805F0010501955C
:1005040008F5803806F0030B019D4FEA8B0BD8F8F1
:10051400085009FA0BF925EA0909414DA84271D09E
:1005240005F58065A8426FD005F58065A8426DD0B9
:1005340005F58065A8426BD005F58065A84269D0B1
:1005440070450CBF0525062505FA0BF545EA090596
:10055400C8F808501D681AF4803F14BF2543A5430A
:100564001D605D681AF4003F14BF2543A5435D6018
:100574009D681AF4801F14BF2543A5439D60DD6860
:100584001AF4001F14BF2C4325EA0404DC6001366E
:10059400102E7FF46DAF03B0BDE8F08F032D25D08E
:1005A400112D80D1CA6804327DE7654509D012D87F
:1005B400DFF878904D4504D009F580394D457FF436
:1005C40072AF8A68E2B1012A0CBFC0F81080C0F88B
:1005D4001480082267E7DFF858904D45F1D009F5FB
:1005E40080394D45EDD0A9F58019E7E700225AE797
:1005F400CA6858E7CA68083255E7CA680C3252E735
:10060400042250E700259FE701259DE702259BE78B
:10061400032599E7042597E70010024000040140F0
:1006240000080140001C01400000211000001110CE
:10063400000031108368194214BF01200020704764
:1006440003682DE9F341DB07054610D42B689F07A7
:100654005ED42B68190700F195802B685A0700F1C6
:10066400BF80EA69002A40F02D81002014E0904CFC
:10067400636803F00C03042B07D0636803F00C03D6
:10068400082B0CD16368DE0309D523689C03DDD5F0
:100694006B68002BDAD1012002B0BDE8F0816B68F1
:1006A400B3F5803F10D1236843F480332360FFF710
:1006B400F9FD064623689803C8D4FFF7F3FD801BB1
:1006C4006428F7D90320E7E79BB9236823F4803330
:1006D4002360236823F480232360FFF7E3FD0646A9
:1006E40023689903B2D5FFF7DDFD801B6428F7D991
:1006F400E8E7B3F5A02F236803D143F480232360F4
:10070400D1E723F480332360236823F48023CDE7E7
:10071400674C636813F00C0F07D0636803F00C0395
:10072400082B10D16368DA030DD423689B0702D524
:100734002B69012BAFD123686A6923F0F80343EADC
:10074400C203236085E72A695A4B6AB101221A6001
:10075400FFF7A8FD064623689F07ECD4FFF7A2FD28
:10076400801B0228F7D9ADE71A60FFF79BFD064608
:10077400236898077FF56DAFFFF794FD801B02286F
:10078400F6D99FE7AA694A4C4B4BDAB101221A60A9
:10079400FFF788FD0646636A9B070DD54FF4FA52AE
:1007A400464B1B68B3FBF2F3019300BF019B5A1E37
:1007B4000192002BF9D150E7FFF774FD801B02284A
:1007C400E9D97FE71A60FFF76DFD0646636A9F0764
:1007D4007FF543AFFFF766FD801B0228F6D971E76A
:1007E400334CE369D80024D40127E36943F08053F0
:1007F400E361E36903F080530093009B304E336858
:10080400D90518D5EB68012B26D1236A43F00103DF
:100814002362FFF747FD41F288368046236A9B072F
:100824003FD5002F3FF41DAFE36923F08053E3610C
:1008340017E70027E2E7336843F480733360FFF778
:1008440031FD80463368DA05DCD4FFF72BFDA0EBDD
:1008540008006428F6D935E7ABB9236A41F2883831
:1008640023F001032362236A23F004032362FFF7C6
:1008740019FD0646236A9807D3D5FFF713FD801B9D
:100884004045F7D91EE7052B236A03D143F004033F
:100894002362BAE723F001032362236A23F00403EB
:1008A400B6E7FFF7FFFCA0EB0800B042B6D909E7B2
:1008B400001002400000424280044242080000202E
:1008C40000700040224C636803F00C03082B3FF4D3
:1008D400E2AE00231F4E022A33602BD1FFF7E2FC65
:1008E4000746236899011FD42B6AB3F5803F05D1CD
:1008F4006268A96822F400320A436260696A626825
:100904000B4322F474121343636001233360FFF733
:10091400C9FC054623689A013FF5A7AEFFF7C2FC60
:10092400401B0228F6D9CDE6FFF7BCFCC01B022809
:10093400D7D9C7E6FFF7B6FC054623689B017FF5C8
:1009440094AEFFF7AFFC401B0228F6D9BAE600BF0D
:10095400001002406000424230B51B4B87B002AC2D
:1009640003F11005224618685968083303C2AB42E4
:100974001446F7D101238DF80430022313498DF86E
:1009840005304B6803F00C02042A1BD0082A02D05D
:100994000F4807B030BDC3F3834206A80244DB030B
:1009A40012F8102C0BD54B680A48C3F3404350434C
:1009B40006AA134413F8143CB0FBF3F0E9E7064825
:1009C4005043E6E70348E4E7001C00080010024037
:1009D40000127A00001BB70000093D00544A2DE9BB
:1009E400F0411368054603F007038B420E462AD3F1
:1009F40029688C0734D4CA0747D44D4A136803F0D6
:100A040007039E42C0F082802A684A4C12F0040F09
:100A140040F08780130706D563682A6923F460537E
:100A240043EAC2036360FFF797FF6368424AC3F374
:100A34000313D35CD840414B18600020FFF7F0FB50
:100A44000020BDE8F081136823F007030B43136013
:100A5400136803F007039942CAD00120BDE8F0816E
:100A6400344B11F0040F1EBF5A6842F4E0625A601E
:100A7400080742BF5A6842F460525A605A68A8682C
:100A840022F0F00202435A60B5E76A68294C012A51
:100A940023681CD113F4003FDFD0636841F2883827
:100AA40023F0030313436360FFF7FCFB6B68074603
:100AB400012B14D1636803F00C03042B9DD0FFF7C2
:100AC400F1FBC01B4045F5D90320BDE8F081022AA3
:100AD40002D113F0007FDFE713F0020FDCE7022BF3
:100AE4000FD1636803F00C03082B86D0FFF7DAFB01
:100AF400C01B4045F5D9E7E7FFF7D4FBC01B4045D1
:100B0400E2D8636813F00C0FF6D176E7136823F08C
:100B1400070333431360136803F007039E429CD119
:100B240072E76368E96823F4E0630B43636071E789
:100B34000020024000100240201C00080800002091
:100B4400044B054A5B68C3F30223D35C034A106871
:100B5400D840704700100240301C000808000020F4
:100B6400044B054A5B68C3F3C223D35C034A106891
:100B7400D840704700100240301C000808000020D4
:100B8400036A70B523F001030362036A446882694F
:100B94000D6822F073022A438D6823F002032B436D
:100BA4000E4DA84202D00E4EB04210D1CE6823F0B2
:100BB40008033343A84223F0040302D0084DA8429B
:100BC40005D14D698E6924F4407435432C43446047
:100BD40082614A684263036270BD00BF002C014019
:100BE40000340140036A70B523F480730362036A1E
:100BF4004468C2690D6822F073022A438D6823F4A5
:100C0400007343EA0523114DA84203D005F500659E
:100C1400A84214D1CD6823F4006343EA05230B4DA5
:100C240023F48063A84203D005F50065A84206D1E9
:100C34004D698E6924F44054354344EA05144460F4
:100C4400C2614A68C263036270BD00BF002C0140E8
:100C5400036A30B523F480530362036A4468C269AB
:100C64000D6822F4E64242EA05228D6823F400531B
:100C740043EA0533084DA84203D005F50065A842B0
:100C840004D14D6924F4804444EA85144460C2616B
:100C94004A680264036230BD002C0140244A0368A0
:100CA400904212D002F5006290420ED0B0F1804F13
:100CB4000BD0A2F59832904207D002F580629042A0
:100CC40003D002F5806290421DD14A6823F070037C
:100CD4001343174A904212D002F5006290420ED09C
:100CE400B0F1804F0BD0A2F59832904207D002F5B4
:100CF4008062904203D002F58062904203D1CA68B8
:100D040023F4407313434A6923F0800313430360BD
:100D14008B68C3620B688362054B984203D003F56A
:100D24000063984201D10B69036301234361704757
:100D3400002C014010B50446A0B190F83D3003F0FA
:100D4400FF021BB980F83C2000F06CFD02232068F0
:100D540084F83D30211DFFF7A1FF0123002084F812
:100D64003D3010BD012010BD036A70B523F010039F
:100D74000362036A446882690D6822F4E64242EA27
:100D840005228D6823F0200343EA0513104DA84281
:100D940003D005F50065A84214D1CD6823F0800383
:100DA40043EA05130A4D23F04003A84203D005F596
:100DB4000065A84206D14D698E6924F44064354328
:100DC40044EA8504446082614A688263036270BDB8
:100DD400002C014038B590F83C300446012B4FF00C
:100DE400020025D0012384F83D0084F83C300C2A0D
:100DF40018D8DFE802F0071717171E1717172F1751
:100E0400171740002068FFF7BBFE236809699A6939
:100E140042F008029A619A6922F004029A619A697E
:100E24000A439A610123002084F83D3084F83C0091
:100E340038BD2068FFF798FF236809699A6942F46E
:100E440000629A619A6922F480629A619A6942EA1C
:100E54000122E6E72068FFF7C5FE23680969DA691D
:100E640042F00802DA61DA6922F00402DA61DA692E
:100E74000A43DA61D6E72068FFF7EAFE23680969C6
:100E8400DA6942F40062DA61DA6922F48062DA61D2
:100E9400DA6942EA0122ECE710B50124036A8C40C6
:100EA40023EA04030362036A8A401A43026210BD00
:100EB40010B5044601220068FFF7EEFF2368084AD4
:100EC400934203D002F50062934203D15A6C42F478
:100ED40000425A641A68002042F001021A6010BDF0
:100EE400002C014010B5044600220068FFF7D4FF2F
:100EF4002368144A934203D002F5006293420DD151
:100F040041F21112196A114208D140F24442196A9D
:100F1400114202BF5A6C22F400425A6441F2111287
:100F2400196A114208D140F24442196A114203D1AC
:100F34001A6822F001021A600123002084F83D306F
:100F440010BD00BF002C014090F83C30012B1FD095
:100F5400CB688A6823F4407313434A6823F480639C
:100F640013430A6823F4006313430A6923F4805388
:100F740013434A6923F4005313438A6923F4404317
:100F8400134302685364002380F83C3018467047CA
:100F94000220704790F83C3010B5012B4FF002034B
:100FA40018D080F83D3003680C685A68496822F00C
:100FB40070025A605A6822435A609A6822F080028A
:100FC4009A609A680A439A60012380F83D300023AE
:100FD40080F83C30184610BD0368DA6822F4907239
:100FE400DA605A6922F001025A61202380F83A300B
:100FF400704700002DE9F0470568C2682B69016954
:1010040023F4405313432B618368EA680B4341691B
:1010140022F4B05222F00C020B431343EB606B69D1
:10102400826923F4407313436B61404B81469D42B4
:101034004FF0190446D1FFF793FD04FB00F3D9F8F0
:1010440004604FF06408B600B3FBF6F3B3FBF8F3A7
:101054001E01FFF785FD6043D9F804309B00B0FB07
:10106400F3F7FFF77DFD6043D9F804309B00B0FB34
:10107400F3F3B3FBF8F308FB13731B013233B3FB35
:10108400F8F303F0F007FFF76BFD6043D9F8042091
:101094009200B0FBF2FAFFF763FD6043D9F8043025
:1010A4009B00B0FBF3F3B3FBF8F308FB13A31B01A2
:1010B4003233B3FBF8F303F00F033B433344AB6029
:1010C400BDE8F087FFF73CFD04FB00F3D9F80460AA
:1010D4004FF06408B600B3FBF6F3B3FBF8F31E015C
:1010E400FFF72EFD6043D9F804309B00B0FBF3F703
:1010F400FFF726FD6043D9F804309B00B0FBF3F3FF
:10110400B3FBF8F308FB13731B013233B3FBF8F39F
:1011140003F0F007FFF714FD6043D9F804209200B0
:10112400B0FBF2FAFFF70CFDB7E700BF003801404F
:10113400F8B504460E4617461D4621680B6836EA84
:10114400030301D10020F8BD6B1CF7D095B92368C7
:101154000320DA6822F4D072DA605A6922F00102BC
:101164005A61202384F8393084F83A30002384F813
:101174003830F8BDFFF796F8C01B8542DDD2E6E7AC
:1011840010B5044640B390F8393003F0FF021BB9A0
:1011940080F8382000F088FC2423226884F8393051
:1011A400D368204623F40053D360FFF723FF23685A
:1011B40000201A6922F490421A615A6922F02A0224
:1011C4005A61DA6842F40052DA602023E06384F85A
:1011D400393084F83A3010BD012010BD2DE9F041BA
:1011E4001F4690F839300446202B0D4690464ED1C8
:1011F400002949D0002A47D090F83830012B46D036
:10120400012380F838300023C363212380F8393068
:10121400FFF748F80646A4F82480A4F82680E38C57
:101224009BB26BB93B46324640212046FFF780FF14
:10123400A8B9202384F8380084F83930BDE8F08157
:10124400E38C3246013B9BB2E384A3688021B3F56F
:10125400805F20463B460ED1FFF76AFF10B10320A2
:10126400BDE8F0812B882268C3F308035360236927
:1012740043B90235D3E7FFF75BFF0028EFD12368BA
:101284002A785A600135CAE70120BDE8F0810220BE
:10129400BDE8F08190F83A30202B20D1E9B1E2B1D9
:1012A40090F83830012B1AD0C2858285002322227F
:1012B400C36380F83A2002688162D16880F83830CC
:1012C40041F48071D1605169184641F001015161C6
:1012D400D16841F02001D16070470120704702209D
:1012E4007047704790F83A3010B5222B36D1836896
:1012F4000169B3F5805F0268836A23D15268E9B952
:10130400C2F3080223F8022B8362C48D013CA4B209
:10131400C4858CB90368DA6822F02002DA60DA68DE
:1013240022F48072DA605A6922F001025A612023A1
:1013340080F83A3000F01EFA002010BDD2B223F833
:10134400012BE1E721B9591C526881621A70DCE76C
:101354005268591C816202F07F02F7E7022010BD37
:1013640070470000036870B51A6804461607D96808
:101374005D6907D196065AD58D0658D5BDE87040EB
:10138400FFF7B0BF15F0010502D111F4907F4ED0E4
:10139400D30705D5CE0542BFE36B43F00103E363F6
:1013A400500704D51DB1E36B43F00203E3639307D5
:1013B40004D51DB1E36B43F00403E363160704D5BE
:1013C4001DB1E36B43F00803E363E36B002B66D0CA
:1013D400950604D5880602D52046FFF783FF2368C7
:1013E40020465D69E26B110702D415F040051AD05E
:1013F400FFF7F2FD23685A69520610D55A69606BEB
:1014040022F040025A6150B1254B4363FEF7B8FF06
:10141400002844D0606BBDE87040436B18472046F9
:10142400FFF79EFF70BDFFF79BFFE56370BD1606D7
:1014340027D50D0625D594F83920212A2FD1A26865
:10144400B2F5805F226A17D11188C1F3080159608F
:10145400216979B902322262E28C013A92B2E284C1
:10146400EAB9DA6822F08002DA60DA6842F040020F
:10147400DA6070BD0132EEE7511C216212785A60C5
:10148400EAE750060BD54A0609D5DA68204622F069
:101494004002DA60202384F83930FFF722FF70BD60
:1014A400A914000808B50023406AC385C384FFF764
:1014B40057FF08BD102200B589B00DEB02000021D2
:1014C40000F088FB1B4B04A99A691B4842F02002D8
:1014D4009A619A6902F020020092009A9A6942F095
:1014E40004029A619A6902F004020192019A9A69CB
:1014F40042F010029A619A6902F010020292029A72
:101504009A6942F008029A619B6903F00803039305
:10151400039B30230493FEF7A1FF182304930023B5
:1015240004A9064805930693FEF798FF09B05DF8F1
:1015340004FB00BF0010024000100140000C0140F9
:1015440010B590B02822002106A800F043FB00212A
:10155400142201A800F03EFB4FF480330122022440
:1015640007930E934FF4801306A806920A920F93E2
:101574000D94FFF765F80F234FF480620193002365
:10158400214601A80294039304920593FFF726FAD7
:1015940010B010BD2DE9F84F0024FEF765FEFFF7EB
:1015A400CFFFFFF787FF00F099F900F061FA00F030
:1015B400EDF94B4B01221C704A4B4B494B481C70B4
:1015C400FFF768FE21464A48FFF772FC04214848A9
:1015D400FFF76EFC08214648FFF76AFCA146A046C7
:1015E40027462646DFF820A1424D10215046FFF73A
:1015F40021F80128834607D136B900F025FA0321E2
:101604003D4800F095FA5E4610215046FFF712F867
:10161400834618B916B100F021FA5E461021284617
:10162400FFF708F80128834607D137B900F00CFA10
:101634000321324800F07CFA5F4610212846FEF769
:10164400F9FF834618B917B100F008FA5F4608217C
:101654002846FEF7EFFF0128834609D1B8F1000FB1
:1016640006D100F0F1F90321254800F061FAD846CB
:1016740008212846FEF7DEFF834628B9B8F1000F9B
:1016840002D000F0EBF9D84620215046FEF7D2FFF5
:101694000128834609D1B9F1000F06D100F0D4F92D
:1016A4000321184800F044FAD94620215046FEF799
:1016B400C1FF834628B9B9F1000F02D000F0CEF97A
:1016C400D94600F0B9F901288FD141F6FE730134EF
:1016D400A4B29C4289D900F0A9F9002485E700BF8F
:1016E4002C0000203200002033000020B400002031
:1016F40074000020000C0140101C0008141C000899
:10170400181C00081C1C0008001001407047000051
:101714000E4B82B09A6942F001029A619A6902F012
:1017240001020092009ADA6942F08052DA61DB69C0
:10173400074A03F080530193019B536823F0E0634D
:1017440043F00073536002B0704700BF00100240C2
:10175400000001407047FEE7FEE7FEE7FEE7704742
:1017640070477047FEF792BD0148FFF7FBBD00BF0D
:10177400B400002038B5134B134C1A783C2A0ED110
:101784000022124B1A70012323700E4D104C0122BB
:1017940029462046FFF77EFD0028F8D138BD23787E
:1017A400012BF2D13E2A0B4806D10378462B01D1F6
:1017B40000F036F90023E7E704490B78C2540133FB
:1017C4000B70E2E733000020320000202C000020E0
:1017D400B40000202D0000200F4B1A6842F00102D3
:1017E4001A6059680D4A0A405A601A6822F08472D5
:1017F40022F480321A601A6822F480221A605A682D
:1018040022F4FE025A604FF41F029A604FF0006205
:10181400034B9A60704700BF001002400000FFF8BD
:1018240000ED00E003680F4A82B093420BD10E4BE7
:101834009A6942F400629A619B6903F4006300931D
:10184400009B02B07047B3F1804FFAD103F5043323
:10185400DA6942F00102DA61DB6903F00103019302
:10186400019BEEE7002C01400010024010B5044635
:1018740086B01022002102A800F0ACF92368144AB3
:10188400934215D1134B9A6942F004029A619B6901
:1018940003F004030093009B4FF48073029302232C
:1018A40002A90D4803930593FEF7D8FD06B010BDB9
:1018B400B3F1804FFAD103F504339A6942F004027C
:1018C4009A619B6903F004030193019B0723E5E7F5
:1018D400002C0140001002400008014010B5002413
:1018E40090B01C22214602A80094019400F072F9E1
:1018F4001C22214609A800F06DF947232148224AF9
:10190400846080E80C00FA23C360042343618023CD
:1019140004618361FFF70EFA08B1FFF7F7FE694629
:10192400184800940194FFF735FB08B1FFF7EEFE69
:10193400602302937D23002403934FF48073224693
:1019440002A9104804940594069407930894FFF799
:1019540041FA08B1FFF7DAFE4FF4005309A9094828
:1019640009940A940B940C940D940E930F94FFF71E
:10197400EBFA08B1FFF7CAFE0248FFF777FF10B091
:1019840010BD00BF34000020002C014010B500241D
:101994008AB01C22214603A80194029400F01AF98B
:1019A40047234FF080421D4880E80C00FA23C360AF
:1019B4008023846004618361FFF7BCF908B1FFF7F9
:1019C400A5FE01A9154801940294FFF7E3FA08B1B2
:1019D400FFF79CFE602300220393022303A90F4810
:1019E400049205930792FFF7F5F908B1FFF78EFE0D
:1019F400042203A90948FFF7EDF908B1FFF786FEB1
:101A0400082203A90548FFF7E5F908B1FFF77EFEB0
:101A14000248FFF72BFF0AB010BD00BF740000207E
:101A240000210148FFF744BA340000200021014896
:101A3400FFF758BA34000020024B1B68186A00F004
:101A440001007047340000203222034B1B685A63A4
:101A54009A63DA63704700BF740000200022034BCE
:101A64001B685A639A63DA63704700BF74000020EE
:101A740008B54FF4E13E0A480A4B0C2280E80840BE
:101A8400002342618360C36003618361C361FFF724
:101A940077FB18B1BDE80840FFF738BE08BD00BFAA
:101AA400B40000200038014010B5044686B010226E
:101AB400002102A800F08EF822681B4B9A4230D114
:101AC40003F558439A6902A942F480429A619A69DB
:101AD400164802F480420092009A9A69002442F067
:101AE40004029A619B6903F004030193019B4FF480
:101AF400007302930223039303230593FEF7AEFCC2
:101B04004FF4806302A90948029303940494FEF7F6
:101B1400A5FC252022462146FEF7DCFB2520FEF706
:101B24000DFC06B010BD00BF0038014000080140A4
:101B34000A46642301460148FFF750BBB400002065
:101B4400002103E00B4B5B58435004310A480B4B14
:101B540042189A42F6D30A4A02E0002342F8043BB0
:101B6400084B9A42F9D3FFF737FE00F00FF8FFF75E
:101B740011FD7047401C0008000000200C000020EC
:101B84000C000020F4000020FEE7000070B50025E2
:101B94000C4E0D4CA41BA410A54209D100F022F850
:101BA40000250A4E0A4CA41BA410A54205D170BD01
:101BB40056F8253098470135EEE756F82530984712
:101BC4000135F2E7381C0008381C0008381C0008EE
:101BD4003C1C000803460244934200D1704703F8BA
:101BE400011BF9E7F8B500BFF8BC08BC9E46704776
:0C1BF400F8B500BFF8BC08BC9E46704766
:101C000002030405060708090A0B0C0D0E0F10103D
:101C10003C573E003C533E003C413E003C443E00AD
:101C2000000000000000000001020304060708098C
:081C30000000000001020304A2
:041C38000902000895
:041C3C00E5010008B6
:0C1C4000010000001000000000A24A0497
:0400000508001B458F
:00000001FF
